{
    "_format": "hh-sol-artifact-1",
    "contractName": "Tracking",
    "sourceName": "contracts/Tracking.sol",
    "abi": [
        {
            "inputs": [],
            "stateMutability": "nonpayable",
            "type": "constructor"
        },
        {
            "anonymous": false,
            "inputs": [
                {
                    "indexed": true,
                    "internalType": "address",
                    "name": "sender",
                    "type": "address"
                },
                {
                    "indexed": true,
                    "internalType": "address",
                    "name": "receiver",
                    "type": "address"
                },
                {
                    "indexed": false,
                    "internalType": "uint256",
                    "name": "pickupTime",
                    "type": "uint256"
                },
                {
                    "indexed": false,
                    "internalType": "uint256",
                    "name": "distance",
                    "type": "uint256"
                },
                {
                    "indexed": false,
                    "internalType": "uint256",
                    "name": "price",
                    "type": "uint256"
                }
            ],
            "name": "ShipmentCreated",
            "type": "event"
        },
        {
            "anonymous": false,
            "inputs": [
                {
                    "indexed": true,
                    "internalType": "address",
                    "name": "sender",
                    "type": "address"
                },
                {
                    "indexed": true,
                    "internalType": "address",
                    "name": "receiver",
                    "type": "address"
                },
                {
                    "indexed": false,
                    "internalType": "uint256",
                    "name": "deliveryTime",
                    "type": "uint256"
                }
            ],
            "name": "ShipmentDelivered",
            "type": "event"
        },
        {
            "anonymous": false,
            "inputs": [
                {
                    "indexed": true,
                    "internalType": "address",
                    "name": "sender",
                    "type": "address"
                },
                {
                    "indexed": true,
                    "internalType": "address",
                    "name": "receiver",
                    "type": "address"
                },
                {
                    "indexed": false,
                    "internalType": "uint256",
                    "name": "pickupTime",
                    "type": "uint256"
                }
            ],
            "name": "ShipmentInTransit",
            "type": "event"
        },
        {
            "anonymous": false,
            "inputs": [
                {
                    "indexed": true,
                    "internalType": "address",
                    "name": "sender",
                    "type": "address"
                },
                {
                    "indexed": true,
                    "internalType": "address",
                    "name": "receiver",
                    "type": "address"
                },
                {
                    "indexed": false,
                    "internalType": "uint256",
                    "name": "price",
                    "type": "uint256"
                }
            ],
            "name": "ShipmentPaid",
            "type": "event"
        },
        {
            "inputs": [
                {
                    "internalType": "address",
                    "name": "_sender",
                    "type": "address"
                },
                {
                    "internalType": "address",
                    "name": "_receiver",
                    "type": "address"
                },
                {
                    "internalType": "uint256",
                    "name": "_index",
                    "type": "uint256"
                }
            ],
            "name": "completeShipment",
            "outputs": [],
            "stateMutability": "nonpayable",
            "type": "function"
        },
        {
            "inputs": [],
            "name": "getAllTransactions",
            "outputs": [
                {
                    "components": [
                        {
                            "internalType": "address",
                            "name": "sender",
                            "type": "address"
                        },
                        {
                            "internalType": "address",
                            "name": "receiver",
                            "type": "address"
                        },
                        {
                            "internalType": "uint256",
                            "name": "pickupTime",
                            "type": "uint256"
                        },
                        {
                            "internalType": "uint256",
                            "name": "deliveryTime",
                            "type": "uint256"
                        },
                        {
                            "internalType": "uint256",
                            "name": "distance",
                            "type": "uint256"
                        },
                        {
                            "internalType": "uint256",
                            "name": "price",
                            "type": "uint256"
                        },
                        {
                            "internalType": "enum Tracking.ShipmentStatus",
                            "name": "status",
                            "type": "uint8"
                        },
                        {
                            "internalType": "bool",
                            "name": "isPaid",
                            "type": "bool"
                        }
                    ],
                    "internalType": "struct Tracking.TypeShipment[]",
                    "name": "",
                    "type": "tuple[]"
                }
            ],
            "stateMutability": "view",
            "type": "function"
        },
        {
            "inputs": [
                {
                    "internalType": "address",
                    "name": "_sender",
                    "type": "address"
                },
                {
                    "internalType": "uint256",
                    "name": "_index",
                    "type": "uint256"
                }
            ],
            "name": "getShipment",
            "outputs": [
                {
                    "internalType": "address",
                    "name": "",
                    "type": "address"
                },
                {
                    "internalType": "address",
                    "name": "",
                    "type": "address"
                },
                {
                    "internalType": "uint256",
                    "name": "",
                    "type": "uint256"
                },
                {
                    "internalType": "uint256",
                    "name": "",
                    "type": "uint256"
                },
                {
                    "internalType": "uint256",
                    "name": "",
                    "type": "uint256"
                },
                {
                    "internalType": "uint256",
                    "name": "",
                    "type": "uint256"
                },
                {
                    "internalType": "enum Tracking.ShipmentStatus",
                    "name": "",
                    "type": "uint8"
                },
                {
                    "internalType": "bool",
                    "name": "",
                    "type": "bool"
                }
            ],
            "stateMutability": "view",
            "type": "function"
        },
        {
            "inputs": [
                {
                    "internalType": "address",
                    "name": "_sender",
                    "type": "address"
                }
            ],
            "name": "getShipmentsCount",
            "outputs": [
                {
                    "internalType": "uint256",
                    "name": "",
                    "type": "uint256"
                }
            ],
            "stateMutability": "view",
            "type": "function"
        },
        {
            "inputs": [],
            "name": "shipmentCount",
            "outputs": [
                {
                    "internalType": "uint256",
                    "name": "",
                    "type": "uint256"
                }
            ],
            "stateMutability": "view",
            "type": "function"
        },
        {
            "inputs": [
                {
                    "internalType": "address",
                    "name": "_receiver",
                    "type": "address"
                },
                {
                    "internalType": "uint256",
                    "name": "_pickupTime",
                    "type": "uint256"
                },
                {
                    "internalType": "uint256",
                    "name": "_distance",
                    "type": "uint256"
                },
                {
                    "internalType": "uint256",
                    "name": "_price",
                    "type": "uint256"
                }
            ],
            "name": "shipmentCreate",
            "outputs": [],
            "stateMutability": "payable",
            "type": "function"
        },
        {
            "inputs": [
                {
                    "internalType": "address",
                    "name": "",
                    "type": "address"
                },
                {
                    "internalType": "uint256",
                    "name": "",
                    "type": "uint256"
                }
            ],
            "name": "shipments",
            "outputs": [
                {
                    "internalType": "address",
                    "name": "sender",
                    "type": "address"
                },
                {
                    "internalType": "address",
                    "name": "receiver",
                    "type": "address"
                },
                {
                    "internalType": "uint256",
                    "name": "pickupTime",
                    "type": "uint256"
                },
                {
                    "internalType": "uint256",
                    "name": "deliveryTime",
                    "type": "uint256"
                },
                {
                    "internalType": "uint256",
                    "name": "distance",
                    "type": "uint256"
                },
                {
                    "internalType": "uint256",
                    "name": "price",
                    "type": "uint256"
                },
                {
                    "internalType": "enum Tracking.ShipmentStatus",
                    "name": "status",
                    "type": "uint8"
                },
                {
                    "internalType": "bool",
                    "name": "isPaid",
                    "type": "bool"
                }
            ],
            "stateMutability": "view",
            "type": "function"
        },
        {
            "inputs": [
                {
                    "internalType": "address",
                    "name": "_sender",
                    "type": "address"
                },
                {
                    "internalType": "address",
                    "name": "_receiver",
                    "type": "address"
                },
                {
                    "internalType": "uint256",
                    "name": "_index",
                    "type": "uint256"
                }
            ],
            "name": "startShipment",
            "outputs": [],
            "stateMutability": "nonpayable",
            "type": "function"
        }
    ],
    "bytecode": "0x608060405234801561001057600080fd5b506000600181905550611947806100286000396000f3fe60806040526004361061007b5760003560e01c80635667e02f1161004e5780635667e02f1461012d5780637ff5265d146101715780638365da541461019a578063aace20b7146101de5761007b565b80630605866b14610080578063179a878c1461009c57806327506f53146100c557806341fdc195146100f0575b600080fd5b61009a600480360381019061009591906111c1565b610209565b005b3480156100a857600080fd5b506100c360048036038101906100be9190611228565b610674565b005b3480156100d157600080fd5b506100da610a48565b6040516100e7919061147d565b60405180910390f35b3480156100fc57600080fd5b506101176004803603810190610112919061149f565b610bd2565b60405161012491906114db565b60405180910390f35b34801561013957600080fd5b50610154600480360381019061014f91906114f6565b610c1d565b604051610168989796959493929190611563565b60405180910390f35b34801561017d57600080fd5b5061019860048036038101906101939190611228565b610cdc565b005b3480156101a657600080fd5b506101c160048036038101906101bc91906114f6565b610f38565b6040516101d5989796959493929190611563565b60405180910390f35b3480156101ea57600080fd5b506101f3611122565b60405161020091906114db565b60405180910390f35b80341461024b576040517f08c379a000000000000000000000000000000000000000000000000000000000815260040161024290611664565b60405180910390fd5b60006040518061010001604052803373ffffffffffffffffffffffffffffffffffffffff1681526020018673ffffffffffffffffffffffffffffffffffffffff16815260200185815260200160008152602001848152602001838152602001600060028111156102be576102bd6112c5565b5b81526020016000151581525090506000803373ffffffffffffffffffffffffffffffffffffffff1673ffffffffffffffffffffffffffffffffffffffff16815260200190815260200160002081908060018154018082558091505060019003906000526020600020906007020160009091909190915060008201518160000160006101000a81548173ffffffffffffffffffffffffffffffffffffffff021916908373ffffffffffffffffffffffffffffffffffffffff16021790555060208201518160010160006101000a81548173ffffffffffffffffffffffffffffffffffffffff021916908373ffffffffffffffffffffffffffffffffffffffff16021790555060408201518160020155606082015181600301556080820151816004015560a0820151816005015560c08201518160060160006101000a81548160ff02191690836002811115610415576104146112c5565b5b021790555060e08201518160060160016101000a81548160ff02191690831515021790555050506001600081548092919061044f906116b3565b919050555060026040518061010001604052803373ffffffffffffffffffffffffffffffffffffffff1681526020018773ffffffffffffffffffffffffffffffffffffffff16815260200186815260200160008152602001858152602001848152602001600060028111156104c7576104c66112c5565b5b815260200160001515815250908060018154018082558091505060019003906000526020600020906007020160009091909190915060008201518160000160006101000a81548173ffffffffffffffffffffffffffffffffffffffff021916908373ffffffffffffffffffffffffffffffffffffffff16021790555060208201518160010160006101000a81548173ffffffffffffffffffffffffffffffffffffffff021916908373ffffffffffffffffffffffffffffffffffffffff16021790555060408201518160020155606082015181600301556080820151816004015560a0820151816005015560c08201518160060160006101000a81548160ff021916908360028111156105dd576105dc6112c5565b5b021790555060e08201518160060160016101000a81548160ff02191690831515021790555050508473ffffffffffffffffffffffffffffffffffffffff163373ffffffffffffffffffffffffffffffffffffffff167f5001b34ecf2db5b7bbeddcbbe761ec9ecadcc7638018b98ce3e24995b0e946b6868686604051610665939291906116fb565b60405180910390a35050505050565b60008060008573ffffffffffffffffffffffffffffffffffffffff1673ffffffffffffffffffffffffffffffffffffffff16815260200190815260200160002082815481106106c6576106c5611732565b5b906000526020600020906007020190506000600283815481106106ec576106eb611732565b5b906000526020600020906007020190508373ffffffffffffffffffffffffffffffffffffffff168260010160009054906101000a900473ffffffffffffffffffffffffffffffffffffffff1673ffffffffffffffffffffffffffffffffffffffff161461078e576040517f08c379a0000000000000000000000000000000000000000000000000000000008152600401610785906117ad565b60405180910390fd5b600160028111156107a2576107a16112c5565b5b8260060160009054906101000a900460ff1660028111156107c6576107c56112c5565b5b14610806576040517f08c379a00000000000000000000000000000000000000000000000000000000081526004016107fd90611819565b60405180910390fd5b8160060160019054906101000a900460ff1615610858576040517f08c379a000000000000000000000000000000000000000000000000000000000815260040161084f90611885565b60405180910390fd5b60028260060160006101000a81548160ff021916908360028111156108805761087f6112c5565b5b021790555060028160060160006101000a81548160ff021916908360028111156108ad576108ac6112c5565b5b02179055504281600301819055504282600301819055506000826005015490508260000160009054906101000a900473ffffffffffffffffffffffffffffffffffffffff1673ffffffffffffffffffffffffffffffffffffffff166108fc829081150290604051600060405180830381858888f19350505050158015610937573d6000803e3d6000fd5b5060018360060160016101000a81548160ff02191690831515021790555060018260060160016101000a81548160ff0219169083151502179055508473ffffffffffffffffffffffffffffffffffffffff168673ffffffffffffffffffffffffffffffffffffffff167f3746ccceb54f44c9b0ee0120e596168d07ec9f6ca303cfdd9810d3b2e2686a2e85600301546040516109d391906114db565b60405180910390a38473ffffffffffffffffffffffffffffffffffffffff168673ffffffffffffffffffffffffffffffffffffffff167f2b6f2473aebafaf8d0889669490135928ec4454d2e29a103fd39693bbca6aef183604051610a3891906114db565b60405180910390a3505050505050565b60606002805480602002602001604051908101604052809291908181526020016000905b82821015610bc95783829060005260206000209060070201604051806101000160405290816000820160009054906101000a900473ffffffffffffffffffffffffffffffffffffffff1673ffffffffffffffffffffffffffffffffffffffff1673ffffffffffffffffffffffffffffffffffffffff1681526020016001820160009054906101000a900473ffffffffffffffffffffffffffffffffffffffff1673ffffffffffffffffffffffffffffffffffffffff1673ffffffffffffffffffffffffffffffffffffffff168152602001600282015481526020016003820154815260200160048201548152602001600582015481526020016006820160009054906101000a900460ff166002811115610b8957610b886112c5565b5b6002811115610b9b57610b9a6112c5565b5b81526020016006820160019054906101000a900460ff16151515158152505081526020019060010190610a6c565b50505050905090565b60008060008373ffffffffffffffffffffffffffffffffffffffff1673ffffffffffffffffffffffffffffffffffffffff168152602001908152602001600020805490509050919050565b60006020528160005260406000208181548110610c3957600080fd5b9060005260206000209060070201600091509150508060000160009054906101000a900473ffffffffffffffffffffffffffffffffffffffff16908060010160009054906101000a900473ffffffffffffffffffffffffffffffffffffffff16908060020154908060030154908060040154908060050154908060060160009054906101000a900460ff16908060060160019054906101000a900460ff16905088565b60008060008573ffffffffffffffffffffffffffffffffffffffff1673ffffffffffffffffffffffffffffffffffffffff1681526020019081526020016000208281548110610d2e57610d2d611732565b5b90600052602060002090600702019050600060028381548110610d5457610d53611732565b5b906000526020600020906007020190508373ffffffffffffffffffffffffffffffffffffffff168260010160009054906101000a900473ffffffffffffffffffffffffffffffffffffffff1673ffffffffffffffffffffffffffffffffffffffff1614610df6576040517f08c379a0000000000000000000000000000000000000000000000000000000008152600401610ded906117ad565b60405180910390fd5b60006002811115610e0a57610e096112c5565b5b8260060160009054906101000a900460ff166002811115610e2e57610e2d6112c5565b5b14610e6e576040517f08c379a0000000000000000000000000000000000000000000000000000000008152600401610e65906118f1565b60405180910390fd5b60018260060160006101000a81548160ff02191690836002811115610e9657610e956112c5565b5b021790555060018160060160006101000a81548160ff02191690836002811115610ec357610ec26112c5565b5b02179055508373ffffffffffffffffffffffffffffffffffffffff168573ffffffffffffffffffffffffffffffffffffffff167faafab9f94340179ff9cefd29621e1772a4b8efab8023163838f1b0a8f6ce5df58460020154604051610f2991906114db565b60405180910390a35050505050565b60008060008060008060008060008060008c73ffffffffffffffffffffffffffffffffffffffff1673ffffffffffffffffffffffffffffffffffffffff1681526020019081526020016000208a81548110610f9657610f95611732565b5b9060005260206000209060070201604051806101000160405290816000820160009054906101000a900473ffffffffffffffffffffffffffffffffffffffff1673ffffffffffffffffffffffffffffffffffffffff1673ffffffffffffffffffffffffffffffffffffffff1681526020016001820160009054906101000a900473ffffffffffffffffffffffffffffffffffffffff1673ffffffffffffffffffffffffffffffffffffffff1673ffffffffffffffffffffffffffffffffffffffff168152602001600282015481526020016003820154815260200160048201548152602001600582015481526020016006820160009054906101000a900460ff1660028111156110a9576110a86112c5565b5b60028111156110bb576110ba6112c5565b5b81526020016006820160019054906101000a900460ff1615151515815250509050806000015181602001518260400151836060015184608001518560a001518660c001518760e0015198509850985098509850985098509850509295985092959890939650565b60015481565b600080fd5b600073ffffffffffffffffffffffffffffffffffffffff82169050919050565b60006111588261112d565b9050919050565b6111688161114d565b811461117357600080fd5b50565b6000813590506111858161115f565b92915050565b6000819050919050565b61119e8161118b565b81146111a957600080fd5b50565b6000813590506111bb81611195565b92915050565b600080600080608085870312156111db576111da611128565b5b60006111e987828801611176565b94505060206111fa878288016111ac565b935050604061120b878288016111ac565b925050606061121c878288016111ac565b91505092959194509250565b60008060006060848603121561124157611240611128565b5b600061124f86828701611176565b935050602061126086828701611176565b9250506040611271868287016111ac565b9150509250925092565b600081519050919050565b600082825260208201905092915050565b6000819050602082019050919050565b6112b08161114d565b82525050565b6112bf8161118b565b82525050565b7f4e487b7100000000000000000000000000000000000000000000000000000000600052602160045260246000fd5b60038110611305576113046112c5565b5b50565b6000819050611316826112f4565b919050565b600061132682611308565b9050919050565b6113368161131b565b82525050565b60008115159050919050565b6113518161133c565b82525050565b6101008201600082015161136e60008501826112a7565b50602082015161138160208501826112a7565b50604082015161139460408501826112b6565b5060608201516113a760608501826112b6565b5060808201516113ba60808501826112b6565b5060a08201516113cd60a08501826112b6565b5060c08201516113e060c085018261132d565b5060e08201516113f360e0850182611348565b50505050565b60006114058383611357565b6101008301905092915050565b6000602082019050919050565b600061142a8261127b565b6114348185611286565b935061143f83611297565b8060005b8381101561147057815161145788826113f9565b975061146283611412565b925050600181019050611443565b5085935050505092915050565b60006020820190508181036000830152611497818461141f565b905092915050565b6000602082840312156114b5576114b4611128565b5b60006114c384828501611176565b91505092915050565b6114d58161118b565b82525050565b60006020820190506114f060008301846114cc565b92915050565b6000806040838503121561150d5761150c611128565b5b600061151b85828601611176565b925050602061152c858286016111ac565b9150509250929050565b61153f8161114d565b82525050565b61154e8161131b565b82525050565b61155d8161133c565b82525050565b600061010082019050611579600083018b611536565b611586602083018a611536565b61159360408301896114cc565b6115a060608301886114cc565b6115ad60808301876114cc565b6115ba60a08301866114cc565b6115c760c0830185611545565b6115d460e0830184611554565b9998505050505050505050565b600082825260208201905092915050565b7f5061796d656e7420616d6f756e74206d757374206d617463682074686520707260008201527f6963650000000000000000000000000000000000000000000000000000000000602082015250565b600061164e6023836115e1565b9150611659826115f2565b604082019050919050565b6000602082019050818103600083015261167d81611641565b9050919050565b7f4e487b7100000000000000000000000000000000000000000000000000000000600052601160045260246000fd5b60006116be8261118b565b91507fffffffffffffffffffffffffffffffffffffffffffffffffffffffffffffffff82036116f0576116ef611684565b5b600182019050919050565b600060608201905061171060008301866114cc565b61171d60208301856114cc565b61172a60408301846114cc565b949350505050565b7f4e487b7100000000000000000000000000000000000000000000000000000000600052603260045260246000fd5b7f496e76616c696420526563656976657200000000000000000000000000000000600082015250565b60006117976010836115e1565b91506117a282611761565b602082019050919050565b600060208201905081810360008301526117c68161178a565b9050919050565b7f536869706d656e74206e6f7420696e207472616e736974000000000000000000600082015250565b60006118036017836115e1565b915061180e826117cd565b602082019050919050565b60006020820190508181036000830152611832816117f6565b9050919050565b7f536869706d656e7420616c726561647920706169640000000000000000000000600082015250565b600061186f6015836115e1565b915061187a82611839565b602082019050919050565b6000602082019050818103600083015261189e81611862565b9050919050565b7f536869706d656e7420616c726561647920696e207472616e7369740000000000600082015250565b60006118db601b836115e1565b91506118e6826118a5565b602082019050919050565b6000602082019050818103600083015261190a816118ce565b905091905056fea2646970667358221220d68afdab98b8701dcfbd1951fdeb696a852834209c7c1deaf1373b5ce320416e64736f6c63430008130033",
    "linkReferences": {},
    "deployedLinkReferences": {}
}